:020000040800F2
:10000000708C00209D010008791B0008C5190008AC
:10001000151A0008CF0A0008352700080000000064
:10002000000000000000000000000000291F000880
:100030003D15000800000000E51B0008D123000862
:10004000B7010008B7010008B7010008B7010008B0
:10005000B7010008B7010008B7010008B7010008A0
:10006000B7010008B7010008B7010008B701000890
:10007000B7010008B7010008B7010008B701000880
:10008000B7010008B7010008B7010008B701000870
:10009000B7010008B7010008B7010008B701000860
:1000A000B7010008B7010008B7010008B701000850
:1000B000B7010008B7010008B7010008B701000840
:1000C000B7010008B7010008B7010008B701000830
:1000D000B701000879250008B7010008B70100083A
:1000E000B7010008B7010008B7010008B701000810
:1000F000B7010008B7010008B7010008B701000800
:10010000B7010008B7010008B7010008B7010008EF
:10011000B7010008B7010008B7010008B7010008DF
:100120004D130008B7010008B7010008B701000827
:10013000B7010008B7010008B7010008B7010008BF
:10014000B7010008B7010008B7010008B7010008AF
:10015000B7010008B7010008B7010008B70100089F
:10016000B7010008B7010008B7010008B70100088F
:10017000B7010008B7010008B7010008B70100087F
:10018000B7010008B7010008DFF80CD000F026FB2B
:1001900000480047CD330008708C00200648804797
:1001A00006480047FEE7FEE7FEE7FEE7FEE7FEE75C
:1001B000FEE7FEE7FEE7FEE72D24000889010008C0
:1001C00040EA01039B0703D009E008C9121F08C0D9
:1001D000042AFAD203E011F8013B00F8013B521E59
:1001E000F9D27047D2B201E000F8012B491EFBD2D0
:1001F00070470022F6E710B513460A460446194632
:10020000FFF7F0FF204610BD2DE9FE4F804681EA42
:100210000300C00F0C46009021F0004123F0004580
:10022000B8EB0200A94105D24046214690461C4643
:100230000B46024623F00040104347D0270DC7F37A
:100240000A00C3F30A510290401A019040286BDA69
:10025000C3F3130040F4801B0098924620B10023A2
:10026000D2EB030A63EB0B0B01985946C0F1400235
:10027000504600F0ADF906460D4650465946019AE3
:1002800000F0B5F910EB08006141002487EA115233
:1002900084EAE7731A4340D0009A62B3019A012AB4
:1002A0004FEA075215DC001B61EB02014FF00042E0
:1002B00002EA0752CDE90042001C41F580113246A6
:1002C0002B4600F0ECF903B0BDE8F08F4046214624
:1002D000F9E7001B61EB0201001C41F580130018D7
:1002E0005B412018A2F5001747EB030140EAD570E7
:1002F000B6196D4111E06D084FEA360645EAC07542
:100300004FEA0752001B61EB0201001C41F580110E
:1003100049084FEA30000019514132462B4603B0DC
:10032000BDE8F04F00F0ACB9009801224000002376
:10033000D0EB020263EBE073009821464FEAE074D1
:10034000B8EB000061EB0401E9E783F000435BE7F1
:1003500081F0004158E72DE9FE4F81EA030404F0E3
:10036000004421F0004100944FF0000B23F00043C3
:1003700050EA01045ED052EA03045BD0C3F30A548E
:10038000C1F30A552C44A4F2F3340194A0FB0254A7
:10039000C1F3130141F48011C3F3130343F4801339
:1003A00001FB024400FB034E840A970A44EA81548D
:1003B00047EA8357A4FB076802958D0A05FB07856A
:1003C0004FEA932C04FB0C542705029D4FEA065874
:1003D00047EA1637B5EB08056EEB070C870E920E51
:1003E00047EA811742EA8312A7FB0201B6EB0B0131
:1003F00064EB00042B0D43EA0C335E1844EB1C50F5
:10040000DA465146E7FB0201C5F313044FEA0B330A
:1004100043EA14534FEA0432019C43EA0603A4F171
:100420000C040294009CCDE900B400F038F903B04C
:10043000BDE8F08F00200146F9E72DE9F04D81EA93
:10044000030404F0004B21F0004514464FF0000A6D
:1004500023F0004150EA050220D054EA01021DD0E9
:10046000C5F30A570246C5F31303C1F31300C1F3E2
:100470000A5640F4801543F48013A7EB0608101BBE
:10048000D64608F2FD3873EB050002D308F10108E7
:1004900001E092185B41B8F1000F03DA0020014639
:1004A000BDE8F08D00204FF48011064684460EE032
:1004B000171B73EB050705D3121B63EB05030643FC
:1004C0004CEA010C49084FEA300092185B4150EAAF
:1004D0000107EDD152EA030012D082EA040083EA58
:1004E0000501084305D0101BAB4106D201220023B1
:1004F00006E000224FF0004302E06FF001025310CB
:100500001AEB06004CEB085110EB0A0041EB0B0113
:10051000BDE8F04D00F0B4B830B4044696230800AE
:10052000214604D0B62330BC002200F07BB8204620
:100530000021F8E70EB540F2334102910021CDE9E8
:1005400000110A460B4600F0AAF803B000BD0EB534
:1005500040F2334202920022CDE90022134600F01D
:100560009EF803B000BD000030B5041E71F1000418
:1005700004DB4FF00044404264EB0101141E73F1B0
:10058000000405DB1C464FF00043524263EB0403BA
:100590008B4208BF824230BD01F0004330B421F0ED
:1005A000004150EA010206D00A0DA2F56072C1F3C3
:1005B0001301002A02DC30BC00207047440F44EADB
:1005C000C104C100E01830BC00EBC25000F021B8FB
:1005D000202A04DB203A00FA02F100207047914003
:1005E000C2F1200320FA03F3194390407047202AF8
:1005F00006DBCB17203A41FA02F043EAE07306E04B
:1006000041FA02F3D040C2F120029140084319465A
:1006100070470029A8BF7047401C490008BF20F060
:100620000100704710B4B0FA80FC00FA0CF050EAF8
:10063000010404BF10BC704749B1CCF1200421FA79
:1006400004F411FA0CF118BF012121430843A3EB74
:100650000C01CB1D4FEA00614FEA102042BF002081
:1006600010BC704700EBC35010440029A4BF10BC5D
:100670007047401C490008BF20F0010010BC7047C3
:1006800010B5141E73F1000408DA401C41F100019A
:1006900092185B411A4301D120F0010010BD2DE9F1
:1006A000F04D92469B4611B1B1FA81F202E0B0FAE8
:1006B00080F220329046FFF78BFF04460F4640EA57
:1006C0000A0041EA0B0153465A46084313D011462B
:1006D00053EA010019D0C8F14002504600F090F8EA
:1006E00005460E46504659464246FFF771FF0843FD
:1006F00005D0012004E020463946BDE8F08D0020F9
:10070000054346EAE0762C4337430A986305E40A3A
:10071000A0EB08000022FD0A44EA47540A3002D543
:1007200000200146E9E7010510196941DDE90845A6
:1007300000196941BDE8F04DA2E72DE9F04D002315
:100740001A461B1A8A4103DB00200146BDE8F08DE2
:10075000C1F30A52C1F3130141F480154FF0000BAD
:10076000D10702D100186D41521E0027044640F205
:10077000FF11384601EB620A3E46804602460020E1
:100780004FF4801100F03CF8C2197141BB1846EBE0
:100790000100B4EB030C75EB000C04D3E41A65EB19
:1007A000000517460E46241908F101006D418046E8
:1007B0003428E3DDF91946EB0600091BA84103D2F2
:1007C0004FF0FF32134601E0002213461BEB0700F7
:1007D00046EB0A51BDE8F04DFFF752BF064C074DFE
:1007E00006E0E06840F0010394E807009847103401
:1007F000AC42F6D3FFF7CCFC443E0008643E000850
:10080000202A04DB203A21FA02F00021704721FA65
:1008100002F3D040C2F120029140084319467047CC
:10082000002904D0816841F001018160704781682E
:1008300021F001018160704710B5074C226807491B
:100840000A40D0E900131943D0E9023003431943A9
:100850001143216010BD000004230140E030FCFF83
:10086000002904D0816841F48071816070478168FB
:1008700021F4807181607047002904D0816841F4BF
:10088000007181607047816821F400718160704758
:10089000F0B5A1B001214E4801F0CCFA01210D02C2
:1008A000284601F0E3FA0121084601F0D1FAFE20C2
:1008B000039003208DF8100000248DF8134003A945
:1008C000444801F01FF85320ADF814004D20069065
:1008D000ADF81C40ADF81640860705A9304601F07A
:1008E000E7FD2021304601F0DBFD0121304601F01B
:1008F000CBFD089438480A90384809900B9480142E
:100900000C900D9480100E9040000F90800010907D
:1009100011950001129013940126149615941694C3
:100920002F4F08A9384600F09DFD012218213846B6
:1009300000F07EFD2B4A290411600121384600F0A9
:1009400041FD17942802189019941A9417A8FFF7DC
:1009500073FF1B948DF870608DF8714028051D9011
:100960004FF0C0601E901F9408208DF880001B4E31
:100970001BA94C3E304600F045F800214A1CC1F14D
:1009800007001446C1B2D2B20123304600F060F82D
:10099000E1B20829F2D301213046FFF76DFF0121B2
:1009A0003046FFF75DFF01213046FFF739FF42F285
:1009B000C8110E4ACDE900210B4802904FF448536C
:1009C00032222946082000F077FD21B0F0BD00005A
:1009D00001004000000002406C4C00204C2001400F
:1009E0001064024004E100E0911F00085828002034
:1009F000C06C80B270470246002012680A4200D0E4
:100A00000120704730B542680F4B1A400C790B68D3
:100A100042EA04221343436083680C4A1340D1E93D
:100A2000034222434D798C6844EA450422431A4329
:100A30008260C26A22F47002097D491EC9B242EA8C
:100A40000151C16230BD0000FFFEFFFCFDF7FFC099
:100A500070B5072609290AD9C568A1F10A0404EB73
:100A60004404A640B543A3401D43C56007E00569A3
:100A700001EB4104A640B543A3401D4305611F237C
:100A8000072A09D2446B521E02EB820293409C4318
:100A900091400C43446370BD0D2A09D2046BD21FF0
:100AA00002EB820293409C4391400C43046370BD6F
:100AB000C46A0D3A02EB820293409C4391400C437E
:100AC000C46270BD816841F0804181607047FEE77B
:100AD0002DE9F04706460024DFF8CC80A246A8F1B5
:100AE0001009324F5BE00025F9680020884718B1F3
:100AF0003878604336F81050F9680120884730B1E3
:100B0000397804FB01F0401C36F810000544F96800
:100B10000220884730B1397804FB01F0801C36F898
:100B200010000544D8E90010491940EB0A00C8E953
:100B30000010D9E90001E5FB0501C9E90001002524
:100B4000F9680420884728B1397804FB01F0001DBA
:100B500036F81050F9680520884730B1397804FB21
:100B600001F0401D36F810000544F968062088475A
:100B700030B1397804FB01F0801D36F810000544CF
:100B8000D8E90210491940EB0A00C8E90210D9E976
:100B90000201E5FB0501C9E90201641CA4B27888E1
:100BA0008442A0D3BDE8F087508800204400002094
:100BB0002DE9F05F05462DED028B0F469046DFF8DC
:100BC000D89199F8000085420DD2D9F80C1028462A
:100BD000884740B100239C464FF6FF760022002054
:100BE000B9F8024010E00020BDEC028BBDE8F09F98
:100BF00037F81010994201D90B468446B14201D210
:100C00000E460246401C80B2A042F1D30FFA8CFB84
:100C1000ABEB940006B2A8F8006000231DE0B8F921
:100C200000001919084490FBF4F104FB110000B214
:100C300037F8100005FB043CD9F8101051F82CA02F
:100C400000FB00AA41F82CA0D9F8141051F825C0D7
:100C5000604441F825005B1C9BB2A342DFD3D9F866
:100C6000200000EB8515A88C00B92E846E8410B28C
:100C7000BBEB000000D54042A0EB540002B2286854
:100C800030442860D5E90201C6FB8601C5E90201AE
:100C9000286910442861D5E90601C2FB8201C5E933
:100CA0000601A88C401C80B2A884B9F80460B04248
:100CB00070D395ED000AF8EEC00A00EE106AB8EEA7
:100CC000400A80EE808A85ED0A8AD5E90201FFF7A5
:100CD00023FC00EE106A00EE900AB8EE401A80EE97
:100CE000810A08EE480A85ED0B0ADFED2C8AB5EE85
:100CF000C00AF1EE10FA01D2C5ED0B8A95ED040A97
:100D0000F8EEC00A00EE106AB8EE400A80EE808A63
:100D100085ED0C8AD5E90601FFF7FEFB00EE106AAF
:100D200000EE900AB8EE401A80EE810A08EE480AFA
:100D300085ED0D0AB5EEC00AF1EE10FA01D2C5ED4F
:100D40000D8A688C298C401A00B206FB04F1081A3F
:100D500000280FDDD9F80810714300EE101AF8EEE4
:100D6000400A00EE100AB8EEC00A80EE801A85ED47
:100D70000E1A03E09FED0A0A85ED0E0A0020286096
:100D80000022AA60EA602861AA61EA61A8840120C1
:100D90002AE7FFE7002027E74400002000000000CA
:100DA000000048422DE9F05F06462DED088BF0EE7D
:100DB00040AA90461C469FEDF28A84ED008A0020EE
:100DC000DFF8C0A3BAF8021006E0626802EB800206
:100DD00082ED008A401C80B28842F6D34FF0000BAF
:100DE00084F808B084ED038A84ED048A9FEDE6BAA6
:100DF00084ED05BA84ED068A9FEDE40A84ED070AC6
:100E000084ED088A84ED098A84ED0A8A84ED0B8AD0
:100E100084ED0C8A84ED0D8A84ED0E8A84ED0F8AB0
:100E200084ED108A84ED118A84ED128A9AF800000C
:100E3000864228D26068002825D0DAF80C103046A7
:100E4000884770B1B0EE489A9FEDD1AADFEDD18A04
:100E50000027B946F0EE499AB8F1000F13D00025EB
:100E60004CE00020BAF8021007E006FB0102DAF8B5
:100E7000103043F822B0401C80B28842F5D3DAF833
:100E8000140040F826B0BDEC088BBDE8F09F06FBCF
:100E90000050DAF8101051F8200000EE100AF8EEB9
:100EA000400A00EE108AB8EE401A80EE810A01F086
:100EB000F4FF606820EE2A0A00EB850080ED000A4E
:100EC000B4EECA0AF1EE10FA02D2B0EE40AA2F46F2
:100ED000B4EEE80AF1EE10FA02DDF0EE408AA9461F
:100EE00070EE299A00EE009ABAF80200DAF81010B3
:100EF00006FB005041F820B06D1CADB2BAF80200FC
:100F00008542C4D3BAF8021000EE101AF8EE400A77
:100F100089EEA00AC4ED088A84ED0AAA00EE909A30
:100F2000B8EE601A00EE900AF8EE601AC1EE210ADF
:100F30009FED991A60EE810AC4ED090A00EE907ADD
:100F4000F8EE601A00EE900AB8EE602AC1EE820A4E
:100F500060EE810AC4ED0B0A84ED0C8A00213CE0AE
:100F60004A1CB2FBF0F3154600FB132293B26268F1
:100F700002EB810CDCED000AF4EEC00AF1EE10FA8F
:100F80002AD802EB830CDCED000AF4EEC00AF1EE85
:100F900010FA21DD656805EB8105D5ED000A70EEDC
:100FA000C00A02EB8302D2ED001A31EEC00A30EE25
:100FB000600AC0EE801A00EE101AB8EE400A30EE59
:100FC000610A00EE900AF8EE601AC0EE210A20EEE7
:100FD000810A84ED0C0A02E0A9B28142C0D3A7EBDA
:100FE000900109B2002901DA014409B2217200EE30
:100FF000100AF8EE400A89EE200A01F04EFF84ED57
:10100000000ADAF8200000EB8610D0ED0B0AC4EDE0
:10101000030AD0ED0D0AC4ED040AD0ED0E0AC4EDAA
:10102000070ADAF81400BAF8021050F8260008FB94
:1010300001F800EE900AB8EE601A00EE908AF8EE21
:10104000E01AC1EE210A9FED551A70EEC10A60EE5A
:10105000AA0AC4ED060A10EE100A514A904204DDB5
:10106000C8EE800AC4ED050A01E084ED05BA10EE71
:10107000100A904201DA84ED008A2068904256DD21
:101080000122606800F004F9B0EE408A0222BAF84A
:101090000210606800F0FCF8B0EE40AA0322BAF833
:1010A0000210606800F0F4F8F0EE408A0522BAF809
:1010B0000210606800F0ECF8B0EE409A0722BAF82F
:1010C0000210606800F0E4F818EE100A3549884212
:1010D0002DDD84ED0D8ACAEE080ADFED339A60EE4D
:1010E000A90AC4ED0F0AC8EE880A60EEA90AC4ED89
:1010F000100AC9EE080A60EEA90AC4ED110AC0EE92
:10110000080A60EEA90AC4ED120A6AEE0A0A48EE5D
:10111000A80A49EE090A40EE000AB0EE600A01F0A2
:10112000BCFEC0EE080A20EEA90A84ED0E0ADAF829
:101130001C00815D51B1DAF8181094ED000A01EB42
:10114000860181ED000A00F806B013E094ED000A74
:10115000DFED160ADAF818009FED151A00EB86008D
:1011600020EE200AD0ED000A00EE810A80ED000A90
:1011700084ED000ADAF8140040F826B083E6000097
:101180000000000044000020F4FDB43F000048428D
:1011900000247449002474C90000B44300000045D1
:1011A000CDCCCC3D6F12833A0000C842CDCC4C3E32
:1011B000CDCC4C3F2DE9F04104462DED088BB0EE2F
:1011C00040BA012C57D800299FED2CAB53D02D48A5
:1011D00040884843FFF7AEF9054641EC180B2A4812
:1011E0000F4600EBC406D6E90001FFF7B0F953EC57
:1011F000182BFFF722F941EC180B234847EC195B39
:10120000103800EBC404D4E90001FFF7A0F953EC57
:10121000192BFFF712F941EC190B53EC182B51EC79
:10122000180BFFF798F853EC192BFFF791F841ECE6
:10123000180B0021316071602160616053EC1A2B42
:1012400051EC180BFFF790F903D2B0EE4A8AF0EE9A
:101250006A8AB0EE480AF0EE680A01F0E1FD51EC4E
:10126000100BFFF799F900EE100A20EE0B0ABDEC07
:10127000088BBDE8F0819FED050AF8E7000000004B
:101280000000000044000020508800200000000002
:1012900070B505462DED028B0C4600EE102ADFEDF1
:1012A000290AB8EE400A60EE200A00EE104AB8EEB5
:1012B000400AC0EE808AB0EE680A01F041FCB0EE50
:1012C000408AB0EE680A01F0E3FCF0EE402AB0EE8E
:1012D000000A28EE002ADFED1C0AB0EE601A002298
:1012E0000DE012EE201A05EB8200D0ED001A71EE2F
:1012F000211AB0EE601AF0EE610A521C92B2A242BC
:10130000EFD300EE104A41EE480AF6EE001AB8EEAE
:10131000400A20EE212A80EE820A00EE904A21EE59
:10132000221AF8EE600A60EEA11AC1EE210ABDECA5
:10133000028B20EE000ABDE8704000EEA00A01F02A
:10134000ACBD0000DB0FC9400000000070B50E4EC0
:101350000E4D3146284600F041F80D4C28B131467B
:10136000284600F019F8002020700A4E2846314621
:1013700000F034F8002805D03146284600F00CF87B
:101380000120207070BD0000104000101064024069
:101390001400002020800010074A904201D2074824
:1013A00001E005481038064A8B0001EA020101D528
:1013B000C160704781607047106402400060024065
:1013C0007D0F7D0F002904D0016841F0010101600B
:1013D0007047016821F001010160704730B50024B9
:1013E0000F4A904201D20F4A01E00D4A103A0E4BCB
:1013F000194205D01E2303EAD12503682B4002E0E1
:10140000406900F08003880001D5506800E0106852
:10141000064A1040084201D003B10124204630BDE5
:1014200010640240006002403C0F3C0F7D0F7D0FB6
:101430000B0609D522B1436943F08003436103E001
:10144000436923F080034361802905D001F01E0128
:101450001AB102680A430260704702688A43026058
:101460007047000030B50368124A1340CC680A6820
:101470002243D1E905452C432243CC6922430C6A1F
:1014800022434C6A22438C6A22434C6B22438C6B6E
:1014900022431A430260426922F00703D1E90B2478
:1014A00022431A4342610A6942604A68826089683D
:1014B000C16030BD3F801CF02DE9F041DDE907C679
:1014C000069C002C14D09EB190B189B100FB01F5AF
:1014D0002F46AD0005EB800500EB400805EB081535
:1014E00005EB80050544AC4504D20020BDE8F08141
:1014F0000020FBE7104D28706980AA80AB60EE6089
:1015000000212C6101EB870162186A6101EB800107
:1015100062182A6201EB80116218AA6101EB800156
:101520006218EA610021012302E05354491CC9B248
:101530008142FAD30120D9E744000020704700001F
:101540002DE9F04105462DED048B0C461646082D7D
:1015500070D2284600F004FDB0EE408A284600F024
:10156000E5FCD4ED000A00EE880AB5EEC00AF1EE03
:1015700010FA01D29FEDDE0A9FEDDE9A20EE090AF5
:10158000BCEEC00A10EE100A652101EB4501DA4FEE
:1015900027F81100000C491C27F8110005F179000B
:1015A00027F810600A30217A27F8101094ED030A0A
:1015B000F2EE048ADFF8448320EE280A4FF6FF7625
:1015C00010EE100A404501DD30460BE0B5EEC00AD2
:1015D000F1EE10FA01D2002004E0BCEEC00A10EED9
:1015E000100A80B205F1F10127F8110094ED040A08
:1015F00020EE280A10EE100A404501DD30460BE0CF
:10160000B5EEC00AF1EE10FA01D2002004E0BCEE03
:10161000C00A10EE100A80B205F1FB0127F8110094
:1016200094ED050A20EE090A10EE100A404502DD8D
:1016300030460CE057E1B5EEC00AF1EE10FA01D2E7
:10164000002004E0BCEEC00A10EE100A80B205F1E2
:10165000970127F8110094ED070A20EE090A10EE11
:10166000100A404501DD30460BE0B5EEC00AF1EE50
:1016700010FA01D2002004E0BCEEC00A10EE100AFD
:1016800080B205F1B50127F8110094ED060A29464C
:10169000A12020EE080A00F0E9FC94ED0E0A20EEED
:1016A000090A10EE100A404501DD30460BE0B5EEA8
:1016B000C00AF1EE10FA01D2002004E0BCEEC00A2C
:1016C00010EE100A80B205F1BF0127F8110094ED69
:1016D0000F0A20EE090A10EE100A404501DD3046DF
:1016E0000BE0B5EEC00AF1EE10FA01D2002004E0E2
:1016F000BCEEC00A10EE100A80B205F1C90127F84D
:10170000110094ED100A20EE090A10EE100A40456F
:1017100001DD30460BE0B5EEC00AF1EE10FA01D261
:10172000002004E0BCEEC00A10EE100A80B205F101
:10173000D30127F8110094ED110A20EE090A10EEEA
:10174000100A404501DD30460BE0B5EEC00AF1EE6F
:1017500010FA01D2002004E0BCEEC00A10EE100A1C
:1017600080B205F1DD0127F8110094ED120A20EE98
:10177000090A10EE100A404501DD30460BE0B5EED7
:10178000C00AF1EE10FA01D2002004E0BCEEC00A5B
:1017900010EE100A80B205F1E70127F8110094ED70
:1017A000080A20EE080A20EE280A10EE100A40452A
:1017B00001DD30460BE0B5EEC00AF1EE10FA01D2C1
:1017C000002004E0BCEEC00A10EE100A80B205F260
:1017D000051127F8110094ED0A0A20EE080A20EE00
:1017E000280A10EE100A404501DD30460BE0B5EE48
:1017F000C00AF1EE10FA01D2002004E0BCEEC00AEB
:1018000010EE100A80B205F2191127F8110094EDBC
:10181000090A20EE280A10EE100A404501DD304684
:101820000BE0B5EEC00AF1EE10FA01D2002004E0A0
:10183000BCEEC00A10EE100A80B205F20F1127F8B4
:10184000110094ED0B0A20EE280A10EE100A404514
:1018500001DD30460BE0B5EEC00AF1EE10FA01D220
:10186000002004E0BCEEC00A10EE100A80B205F2BF
:10187000231127F8110094ED0C0A20EE280A10EE2F
:10188000100A40450BDCB5EEC00AF1EE10FA01D2A9
:10189000002604E0BCEEC00A10EE100A86B205F283
:1018A0002D1027F8106094ED0D0A294640F23710EC
:1018B00020EE080A00F0DAFB0020114901EB452177
:1018C000626802EB800292ED000A20EE080A20EE28
:1018D000280ABCEEC00A10EE102A21F81020401C85
:1018E00080B2FF28ECD9BDEC048BBDE8F08100008C
:1018F000000000000000C842B000002000FF7F4749
:10190000381800202DE9F041002201274FF0030C88
:1019100007FA02F50B682B40AB422CD10668530046
:101920000CFA03F4A64306600E79D0F800809E40BE
:1019300046EA080606600E79012E01D0022E12D169
:101940008668A64386604E79D0F808809E4046EAB5
:10195000080686604668AE43466045688E799640C4
:10196000B6B235434560C568A543C560CC799C4097
:10197000C3681C43C460521C102AC9D3BDE8F0815F
:1019800010B54B07DB0E9A40C90800EB8100016AD5
:101990000F249C40A1430162016A1143016210BD02
:1019A0000246002012690A4200D00120704741839C
:1019B00070470183704700000148006870470000CD
:1019C0000C000020FEE700001CB50121084600F0D5
:1019D00031FA012000908DF8040000218DF80610E6
:1019E00003218DF805108DF80700054C6946204647
:1019F000FFF788FF01212046FFF7DBFF1CBD000039
:101A0000000002400248416981F0010141617047D4
:101A100000000240FEE770B505464FF6FF70002358
:101A20004AF201040EE0EA5C50400822C60702D0E8
:101A30004008604000E04008521ED2B2002AF5D1B2
:101A40005B1C9BB28B42EED370BD00002DE9F043CE
:101A5000044617469946042902D20020BDE8F083C7
:101A6000B9F1000F0ED0601810F8022D407842EA4C
:101A70000025891E89B22046FFF7CDFFA84201D07C
:101A80000020EBE73B4B21785888814203D00129A5
:101A900001D00020E2E76078E278A57842EA0526E6
:101AA0006279257942EA05254FF00008032804D021
:101AB000062822D010282CD045E07019B0F5007F00
:101AC00001D90020CAE7397003247C706800B8701F
:101AD00000200BE0311833F8111007EB40024FEAF9
:101AE000112C82F803C01171401C80B2A842F1D3BE
:101AF00004EB45001FFA80F825E0701E632822D809
:101B000023F8165020683860A088B8804FF0060887
:101B100019E0C6B17019401E642814DC00200AE0E8
:101B200004EB40010A7AC97942EA0121321823F80C
:101B30001210401C80B2A842F2D320683860A088FE
:101B4000B8804FF00608B9F1000F10D0B8F1000FBF
:101B50000DD041463846FFF75EFF08F1010189B21A
:101B600007F80800020A481C1FFA80F87A54404619
:101B700074E70000B00000207047000030B50F236C
:101B8000C27801250178002A1FD0154A126802F494
:101B9000E062C2F5E062C2F30722C2F10404D3405E
:101BA0004278A24084781C401443220101F1E021D4
:101BB00081F80024007800F01F018D40400980006A
:101BC00000F1E020C0F8005130BD01F01F00854059
:101BD0004809800000F1E020C0F8805130BD0000CD
:101BE0000CED00E07047000070B52DED028B82B067
:101BF00037490878FF2866D00878FF220A70364AED
:101C0000344951600026A1F5005101EB003528460A
:101C1000FEF75EFF0024DFED318A204600F0B8F9C0
:101C200020B300212E4804EBC10235F8122020F821
:101C30001120491C89B2FF29F5D90020019001AA81
:101C400027492046FEF7B4FF01280FD1224B32224C
:101C5000BDF90410B0EE680A2046FFF7A3F8BDF9FD
:101C600004201D492046FFF76BFC0126641CE4B2EA
:101C7000082CD2D3002E26D03221B0EE680A0020E4
:101C8000FFF798FAB0EE408A002000F069F920EEE4
:101C9000080A00218D2000F0CFF93221B0EE680A49
:101CA0000120FFF787FAB0EE408A042000F058F9CF
:101CB00020EE080A02B00121BDEC028B8D20BDE8A8
:101CC000704000F0B9B902B0BDEC028B70BD0000ED
:101CD000140000206C6C0020204C0020CDCC4C3C2B
:101CE000204A00202DE9F047054688464FF00009BC
:101CF000B8F1000F05D028784A4E4B4FAA2803D0E0
:101D000004E00020BDE8F087012A03D0012A2FD08B
:101D1000002477E0AA2030700321012037F810302A
:101D20001C0A4A1C92B27454511C89B2B354401C10
:101D30008828F3DD00233D4A002002EB43274C1C9A
:101D400037F81050A4B24FEA152C06F801C0611CF8
:101D500089B23555401CFF28F1DD5B1C082BEBDBFD
:101D6000080A7070B1702F4800F0ACFD0120C9E77F
:101D7000B8F1070F01D20020C4E72D4C286820607D
:101D8000A888A080A8F106081FFA88F10023B21DD8
:101D9000A81DFFF75BFEE0B321683160A188B18028
:101DA000010A31717071801D81B21E4800F08AFDF8
:101DB0004FF001092DE0285DB978884201D0012853
:101DC0001ED10021A8EB0402022A0ADB2B19587845
:101DD000032820D004281ED006281CD010281CD090
:101DE00091B269B18A420BDB281901230D4AFFF732
:101DF0002DFE014621B10B4800F098FB4FF0010980
:101E0000641CA4B2444504D20A2C02D8B9F1000FD4
:101E1000D1D0484676E70821E3E7072AE1DB997944
:101E20000931DEE7B0040020B0000020381800209F
:101E300015000020054A002903D0116801431160F4
:101E400070471168814311607047000030380240CC
:101E5000054A002903D011680143116070471168D9
:101E6000814311607047000040380240054A002954
:101E700003D01168014311607047116881431160FC
:101E8000704700004438024070B5244B196801F0D7
:101E90000C01234C00291ED0661004291DD00829EE
:101EA0001DD00460196801F0F00109091D4A545C55
:101EB0000168E14041601C6804F4E054A40A145D28
:101EC00021FA04F484601B6803F460435B0BD25C6A
:101ED000D140C16070BD0460E4E70660E2E70F4AEC
:101EE000121F1168C1F38055116801F03F0135B12F
:101EF000B6FBF1F11468C4F38814614305E0B4FB48
:101F0000F1F11468C4F3881461431268C2F301420A
:101F1000521C5200B1FBF2F10160C3E708380240E5
:101F20000024F400320000207047000008B50828A3
:101F300002D39FED090A08BD332101EB4000074998
:101F400031F81020401C31F8100042EA00400090A7
:101F50009DED000A08BD000000000000B000002058
:101F600008B5082802D3B7EE000A08BD1F2101EB0F
:101F70004000064931F81020401C31F8100042EAB8
:101F8000004000909DED000A08BD0000B000002058
:101F9000082801D3002070470249473011F810008B
:101FA00070470000B000002070B50020144B154CA5
:101FB0004FF6FF72002133F8105024F8105034F817
:101FC0001050954201D124F81010401CC0B2802856
:101FD000F1D32088A0F5B441A53901D000F05AF81A
:101FE000094914F8860F08706088F2EE040A00EEC2
:101FF000100AB8EE400A80EE201A81ED011A70BD79
:1020000000000E08B00000200400002070B5094C4C
:102010000025B4F8C600012803D100F0A3F8A4F805
:10202000C650B4F8C800012803D100F033F8A4F872
:10203000C85070BDB0000020082911D2DFED090A98
:1020400020EE200ABCEEC00A10EE102A00EB410080
:1020500080B20549130C21F81030401C21F81020E3
:10206000704700000000C842B000002008B50829F1
:102070000CD200EB410080B28DED000A0099044AB9
:102080000B0C22F81030401C22F8101008BD000084
:10209000B0000020FEB52EA0006802902DA00068C0
:1020A00001902DA0006800904FF480612B48FEF74E
:1020B000A0F82A4D01266E80EE804FF44240A880A1
:1020C000002002AA01AB6C4600F10B01175C25F859
:1020D0001170091D1F5C25F81170091D275C25F87A
:1020E0001170401CC0B20428EED30024DFED1C0A9E
:1020F000B7EE000A21461F20FFF7B8FFB0EE600AD6
:1021000021463320FFF7B2FF641CE4B2082CEFD362
:10211000002125F8861FFA206880A980863D0020CE
:1021200000F1470225F81260401CC0B20428F7D322
:10213000042000F1470225F81210401CC0B2082804
:10214000F7D325F8C61F6980BDE8FE4000F00AB845
:10215000C0A80164FFFFFF00C0A80101B00000207B
:102160000000000070B5254B1868002805DA2348E8
:1021700023490C380160234901602049F320091FDD
:102180000860186820F078001860186840F058005F
:102190001860186840F002001860186840F4803039
:1021A00018600868C003FCD4186820F002001860AA
:1021B000186840F001001860186820F4407018603A
:1021C000186840F4807018600F4C45F6A5202080F8
:1021D00000200E4D34F8102025F810200A68D20394
:1021E000FCD4401C8028F5D3186820F0010018604A
:1021F000186840F00040186070BD0000103C0240BC
:1022000023016745AB89EFCDB000002000000E0828
:102210001CB501210420FFF70DFE202000900320B3
:102220008DF8040000248DF8074069460848FFF740
:1022300069FB0848046000209FED070A074901EB8D
:10224000800282ED000A401CC0B20828F7D31CBDF2
:102250000008024010000020000000003828002084
:1022600010B5FFF7A9FB24490A68821AB2F57A7FF4
:1022700041D30860214C072301220F212046FEF79D
:10228000E7FB2046FEF71EFC02212046FEF7B3FBCB
:102290000028F9D02046FEF7ABFB1949A1F88800C9
:1022A00000EE100AB8EE400AB1F88620154852B187
:1022B000DFED150A30EE600ADFED140A20EE200A89
:1022C00080ED000A03E09FED120A80ED000A90ED18
:1022D000000ADFED100A20EE200ABCEEC00A10EE64
:1022E000100AA1F88A0001232046BDE810401A46D2
:1022F0000021FEF7ADBB10BD100000200020014002
:10230000B0000020382800200000004517B7D13861
:10231000000000000000C8420CB5002201920092AB
:102320002749086840F4803008604FF4A0430868EB
:1023300000F4003000900198401C0190009810B902
:1023400001989842F3D10868800302D501200090DB
:1023500000E000920098012831D11948403002680D
:1023600042F0805202601748026842F44042026024
:102370001348083002680260026842F400420260BA
:10238000026842F4A0520260021F0F4B13600A68F9
:1023900042F080720A600A689201FCD50B4A40F252
:1023A00005711160016821F003010160016841F0CD
:1023B000020101600168C1F381010229FAD10CBD5B
:1023C000003802400070004008544007003C0240C2
:1023D00002480168491C0160704700000C000020A1
:1023E00010B501210E48FFF725FD01214FF488703B
:1023F000FFF73CFD0B484FF47A710068B0FBF1F039
:10240000401EB0F1807F09D24FF0E0214861064ABA
:10241000F0201070002088610720086110BD0000C6
:10242000070040001C00002023ED00E010B512481A
:10243000016841F4700101601048016841F0010138
:1024400001600E4A00210832116002680C4B1A40EC
:102450000260031D0B4A1A60026822F480220260A7
:1024600006480C300160FFF757FF03494FF000604A
:102470008039086010BD000088ED00E0003802409F
:10248000FFFFF6FE10300024002904D0018841F03F
:10249000010101807047018821F00101018070472E
:1024A000828822F07002828082880A43828070478C
:1024B00030B50288164C174DA0420DD0A8420BD063
:1024C000B0F1804F08D0144B984205D0134B98427E
:1024D00002D0134B984203D122F070034A881A436A
:1024E000104B984206D0104B984203D022F4407310
:1024F0000A891A4302804A68C2620A880285A04299
:1025000001D0A84201D1897A01860121818230BDA2
:1025100000000140000401400004004000080040A9
:10252000000C004000100040001400402DE9F04174
:1025300005460E46DFF838804FF48077394640462E
:10254000FFF737FA00220B4B06E01C886406FCD527
:10255000A85C9880521C92B2B242F6D3188840060A
:10256000FCD539464046BDE8F041FFF720BA0000EF
:10257000000002400010014070B5164E40F2255197
:10258000304600F039F8144D98B1304600F0CEF8DE
:10259000C4B2FFF737FA298808040AD440F24A4047
:1025A000814204D2481C28800C48445401E0002099
:1025B000288040F22441304600F01EF8002807D061
:1025C0003088B0882888002802D040F40040288055
:1025D00070BD00000010014030000020F483002096
:1025E000002904D0818941F400518181704781899B
:1025F00021F400518181704770B5002440F66A12C1
:10260000C1F3421301F01F05012606FA05F2012B62
:102610000CD0022B0DD0838A1340090A8E4000880B
:1026200030400BB100B10124204670BD83891340B6
:10263000F3E7038A1340F0E710B540F66A13C1F3DD
:10264000421301F01F040121A140012B07D0022BEE
:1026500007D014303AB102680A43026010BD0C3052
:10266000F8E71030F6E702688A43026010BD000008
:102670007FB504460D46208A20F44051E88808437F
:102680002082A08941F20C618843A9882A891143DC
:102690006A8902431143A181A08A20F44071A8896C
:1026A0000843A0826846FFF7EFFB1E48844202D031
:1026B0001D48844201D1039800E00298A1890904D1
:1026C00008D500EBC00101EB001029684900B0FB00
:1026D000F1F007E000EBC00101EB00102968890070
:1026E000B0FBF1F06422B0FBF2F109010B096FF0CD
:1026F00018056B4300EB8300A3891D044FF03203E0
:1027000007D503EBC000B0FBF2F000F00700084370
:1027100006E003EB0010B0FBF2F000F00F000843FE
:1027200020817FBD00100140001401408088C0F36B
:1027300008007047FEE7000030B587B0012108208F
:10274000FFF778FB1B20059001208DF8180000246E
:102750008DF81A4002208DF819001B4D05A9284656
:10276000FFF7D0F8042105918DF818408DF81B4033
:1027700005A92846FFF7C6F801212846FFF719F9F1
:1027800010212846FFF713F90A2000F0BBF91021A9
:102790002846FFF70EF9322000F0B4F90B490C4837
:1027A00000F0FCFE0B490C4800F00AFF0B4801AC9E
:1027B00090E80E00C0680EC4049001A9042000F047
:1027C0009BFC07B030BD0000000C0240BD3A000881
:1027D000993B0008933C0008913B0008FC3D000831
:1027E00070B500244FF4427000F0BEF890B3132887
:1027F0002BD0172806D01C2835D12046BDE87040C4
:1028000000F008BD4FF40275284600F0ADF8C0078F
:1028100003D02846012100F00DF9204600F04CFDC0
:102820000246002A1FD041F28830824200D9024677
:102830000D49204600F03CFE002814DDBDE8704044
:1028400081B201220848FFF74DBA2046BDE870402A
:1028500000F081BD2046BDE8704000234FF4FB72BC
:10286000012100F085BF70BD6C70002070B504467A
:102870000025134E02213046FFF799F8200604D5B3
:1028800008213046FFF795F803E008213046FFF7AE
:102890008EF86006040E02213046FFF78AF8042104
:1028A0003046FFF77DF808B144F0010402213046BC
:1028B000FFF77DF86D1CEDB2082DDBD3204670BD0F
:1028C000000C02400A460146002000F08FBE70470F
:1028D00070B58AB004460D4616461FA003680993DA
:1028E0001EA0026808921EA00068079021780029A7
:1028F00001D0FF2902D123603260286018221949D3
:1029000001A8FDF75DFC20788DF80A0060788DF84D
:102910000B00A0788DF80C00E0788DF80D00287879
:102920008DF80E0068788DF80F00A8788DF81000EB
:10293000E8788DF8110030788DF8120070788DF8F5
:102940001300B0788DF81400F0788DF8150001A808
:1029500001F036F90AB070BDC0A80164C0A8010139
:10296000FFFFFF000C3E0008F8B50446134EF06868
:10297000804770698047716AC4F30740C4F3072534
:1029800099B1B26A8AB18DF800008DF801508DF8C6
:102990000240032168469047F06980470446B169C8
:1029A0008847316988472046F8BD316A8847316ACF
:1029B00028468847316AE0B28847EDE7800000206A
:1029C0002DE9F84304460E461746194DE86880473E
:1029D00068698047696AC4F30740C4F30728A1B156
:1029E000AA6A92B18DF800008DF801808DF802403E
:1029F0000321684690476A6A394630469047A8697D
:102A0000804728698047BDE8F883296A8847296A92
:102A100040468847296AE0B28847002404E0E86914
:102A200080473055641CA4B2BC42F8D3E7E70000ED
:102A300080000020F8B504460E46154DE868804732
:102A40006869804744F00404AA6A8AB1200C8DF8B2
:102A50000000200A8DF801008DF802408DF8036017
:102A6000042168469047A869804728698047F8BDD7
:102A70002A6AC4F307409047296AC4F307208847AD
:102A8000296AE0B28847296A30468847EBE70000A8
:102A900080000020F8B504460E461746184DE86839
:102AA00080476869804744F00404AA6A9AB1200C00
:102AB0008DF80000200A8DF801008DF802400321F6
:102AC00068469047AA6A394630469047A8698047C9
:102AD00028698047F8BD296AC4F307408847296AF6
:102AE000C4F307208847296AE0B28847002404E03D
:102AF000296A305D8847641CA4B2BC42F8D3E5E77C
:102B00008000002000B50246FEF756FF0146FEF7A2
:102B100053FF401A9042FAD300BD4100080218BF8B
:102B200004200A0E18BF40F001004FF07F4232EA45
:102B3000010108BF40F00200012808BF05207047CE
:102B400010EE101A08B5444A6846B2EB410F28D976
:102B50004FF0E640B0EB410F94BF00204FF0FF3044
:102B600000900098002861DB60EE000A10F0010F71
:102B700045D010F0020FDFED391A9FED391A00EE43
:102B8000E11ADFED381A40EE811A21EEA01AF0EEBC
:102B9000400A40EE010A08BFF1EE600AB0EE600A9A
:102BA00008BD314B21F0004293423CD911F0004F57
:102BB000DFED2E0A20EE201ADFED2D0A19BF31EECF
:102BC000601A71EE200A31EE201A71EE600ABDEE35
:102BD000E01A11EE100A9FED271A00F0030000EE34
:102BE000C10A9FED251A009000EEC10A9FED231A3D
:102BF00000EEC10A9FED221A00EEC10AB1E79FED77
:102C0000211A9FED210A10F0020F00EE810A9FEDBC
:102C10001F1A00EE801AB7EE000A00EE810A18BFF4
:102C2000B1EE400A08BD00F069F99AE710EE100A0B
:102C30004000B0F17F4F3CBFB7EE000A08BD07D19E
:102C40004FF0010000F014FABDE8084000F046B96A
:102C5000BDE8084000F03EB9B61F927E336D4C3996
:102C6000DA82083CA0AA2ABE490E494683F9223FCF
:102C70000000004B0000C93F00A0FD390020A23336
:102C80001A61342CB93AB2BACA9F2A3DDDFFFFBEA1
:102C900000B510EE101A2DED028B81B0524A684635
:102CA000B2EB410F2ED94FF0E640B0EB410F94BF8D
:102CB00000204FF0FF3000900098B0EE408A0028CE
:102CC0006ADB10F0010F4BD068EE080A9FED471A3F
:102CD0009FED470A00EE810A9FED461A10F0020FA1
:102CE00000EE801AB7EE000A00EE810A02BF01B0C2
:102CF000BDEC028B00BD00BF01B0B1EE400ABDECDF
:102D0000028B00BD3C4B21F00042934241D911F0AF
:102D1000004FDFED3A0A20EE201ADFED390A19BF25
:102D200031EE601A71EE200A31EE201A71EE600A5F
:102D3000BDEEE01A11EE100A9FED321A00F003000A
:102D400000EEC10A9FED301A009000EEC10A9FED1F
:102D50002F1A00EEC10A9FED2E1A00EEC10AABE752
:102D600028EE080A9FED2B1ADFED2B0A10F0020F58
:102D700040EE410A9FED291A00EE201A61EE000A8A
:102D8000B0EE480A08EE200AB6D101B0BDEC028BC5
:102D900000BD00F0B3F88FE718EE100A4000B0F164
:102DA0007F4F0DD218EE100AFFF7B7FE042808BFB8
:102DB00000F09CF8B0EE480A01B0BDEC028B00BDFB
:102DC00009D1012000F054F901B0BDEC028B5DF88F
:102DD00004EB00F083B801B0B0EE480ABDEC028B02
:102DE0005DF804EB00F076B8B61F927EB93AB2BA3D
:102DF000CA9F2A3DDDFFFFBE490E494683F9223FA7
:102E00000000004B0000C93F00A0FD390020A233A4
:102E10001A61342C336D4C39DA82083CA0AA2ABEE0
:102E200000B52DED048BB0EE409AF0EE609A83B0C1
:102E300051EC190BFDF781FC41EC180B18EE100A50
:102E400018EE901A8DED008B002818BF0120084362
:102E500020F00040C0F17F6000F1E040C00F14D0CE
:102E600019EE101A19EE900A8DED009B002918BF7B
:102E70000121084320F00040C0F17F6000F1E040F4
:102E8000C00F04BF012000F0F3F8B0EE480A03B011
:102E9000F0EE680ABDEC048B00BD10B52DED028B81
:102EA000B1EEC08A18EE100A20F00040C0F1FF40D9
:102EB000C00F0AD010EE100A20F00040C0F1FF4011
:102EC000C00F04BF012000F0D3F8B0EE480ABDECFB
:102ED000028B10BD30EE000A70470000DFED020AE1
:102EE00080EEA00A70470000000000009FED020A7B
:102EF00020EE000A70470000000000102DE9F001EC
:102F00004FF07F42B2EB410F9FBF4FF0FF310160A6
:102F1000BDE8F00170474FF0004242EA0123C1F3DF
:102F2000C752783A551112F01F0C434CCCF12006D1
:102F30007C44C1F3C752A2F178024FEA621204EB5B
:102F4000820254F8254008BFD2E9015612D05568D4
:102F500004FA0CF425FA06F73C43976805FA0CF5D9
:102F600027FA06F8D26807FA0CFCF24045EA080591
:102F70004CEA0206A4FB034CA5FB0352A6FB036329
:102F80001D449D4234BF012600261319334416B157
:102F9000934202D903E0934201D2012200E00022D1
:102FA000624402F1200C9206DC0C42EA443200EE4C
:102FB000102A5B03DFED210AF8EEC01A00EE103A8A
:102FC0004FEA9C1C11F0004FB8EE400AC0F800C058
:102FD00020EE201A00EE105ADFED190AB8EE400A72
:102FE00020EE200A71EE810A70EE800A10EE902A1F
:102FF00002F500626FF30B0200EE902A70EEE11A08
:1030000031EEC11ADFED101A30EE411A9FED0D0AB4
:1030100020EE800A01EE210A9FED0C1A00EE810AD3
:1030200004BFBDE8F0017047CCF180510160BDE8FC
:10303000F001B1EE400A7047F00E000000000036CB
:103040000000802C22AAFD29DB0FC92F0000C92F08
:1030500002E008C8121F08C1002AFAD17047704761
:10306000002001E001C1121F002AFBD170470000BF
:103070000149086070470000AC0000202DE9F041D4
:103080000446082C03D34FF0FF30BDE8F081012740
:1030900007EB8406380200EBC60510212846FFF72F
:1030A000C9FC2846FFF760FC0028FAD14FF40070F5
:1030B00000EBC6001F21FFF7BDFC0D48A74041886B
:1030C000B94341808188B94381800A49002021F8B1
:1030D00014000749891D08554FF4407000EBC604E1
:1030E0002046FFF741FC0028FAD10120CDE700007F
:1030F00068000020608800202DE9FC4102460C4653
:103100002078002100910191D21E4D1E4FF4985756
:103110004FF4A056152A78D2DFE802F00B0E1D19E5
:103120002125293377773E7777774D5054585C6067
:103130006B0000F074FD63E01CB10094009808304F
:103140000190DDE90001BDE8FC4100F0DABC208817
:1031500000F090FC54E000F0B7FC208050E02088A4
:1031600000F020FD4CE000F0BEFC208048E020880C
:10317000010A3846FFF75EFC21783046FFF75AFC1B
:103180003EE03046FFF7F0FB05463846FFF7ECFB24
:1031900005EB0020208033E01D4882782270C27841
:1031A00062700279A2704279E27082792271C079EC
:1031B0006071A17124E000F0BAFD21E0204600F02A
:1031C000CBFD1DE0204600F066FD19E0204600F032
:1031D000A1FD15E0BDE8FC4100F0E4BD00F08DFD6F
:1031E000C0B241B2491C01D0207009E02846BDE8B8
:1031F000FC8100F077FDC0B241B2491C03D02070C1
:103200000020F4E701E02846F1E72846EFE7000058
:10321000800000202DE9F0410746082F03D34FF02E
:10322000FF30BDE8F0814FF0010808EB8704E000B3
:10323000FFF79AFB00F00300012802D06FF00400B2
:10324000EFE74FF4407000EBC4052846FFF78CFB16
:1032500070B34FF4807000EBC40608213046FFF7CE
:10326000E9FB3046FFF780FB0028FAD1114808FA45
:1032700007F8818821EA08018180408818EA000F58
:1032800001D00020CDE74FF4007000EBC4040AE049
:103290002046FFF769FB000705D53846FFF7EEFE2D
:1032A0006FF00C00BDE72846FFF75EFB0028EFD16A
:1032B0000120B6E7680000202DE9F0410027012237
:1032C0004FF4185102EB800001EBC0054FF41C5184
:1032D00001EBC0062846FFF747FB04463046FFF7E0
:1032E00043FB00EB042084B24CB12846FFF73CFBC3
:1032F00007463046FFF738FB00EB072087B2A742AE
:10330000E8D13846BDE8F0812DE9F04100270122DF
:10331000510302EB800001EBC0054FF4045101EBB7
:10332000C0062846FFF720FB04463046FFF71CFB8B
:1033300000EB042084B24CB12846FFF715FB07468A
:103340003046FFF711FB00EB072087B2A742E8D118
:103350003846BDE8F08170B50546082D02D34FF020
:10336000FF3070BD012000EB8504E000FFF7FCFAA0
:1033700000F00300012802D06FF0040070BD4FF48C
:10338000407000EBC4000646FFF7EEFA132802D0A7
:103390006FF0020070BD4FF4807000EBC404022196
:1033A0002046FFF747FB2046FFF7DEFA0028FAD158
:1033B0003046FFF7D9FA142805D02846FFF75EFEFD
:1033C0006FF0030070BD012070BD00000EB5FFF767
:1033D00007F8FEF7E9FDFEF7F7FA4FF4E13000F0E9
:1033E0006BFAFFF7A9F900202D4902AC01AB6D463D
:1033F00000F10B0211F81220225400F10F0211F813
:1034000012201A5400F1130211F812202A54401C01
:103410000428EDDB4FF4FB736A4601A902A8FFF70D
:1034200057FAFFF754FAFEF7F3FEFDF731FA0025DD
:103430001C4C4FF4FA771C4EFEF7D6FBFFF7D0F981
:10344000208801041BD5C0F30E080022414617480E
:10345000FEF748FC28B141461448FCF7CAFE258017
:103460000DE02088C0F30E00208040F29C7188425D
:1034700005D94FF400610D48FCF7BBFE2580FEF72F
:103480009BFA3168401AB842D6D3FEF795FA3060FD
:10349000FEF7B8FAFEF7E4FEFEF7B8FDCCE7000051
:1034A000B00000203000002000000020F483002045
:1034B0002DE9F74F07461646082F03D34FF0FF308C
:1034C000BDE8FE8F4FF0010A0AEB8705E800FFF721
:1034D0004BFA00F00F00012802D06FF00400EFE774
:1034E0009EB14FF4F05000EBC500FFF73DFA4FF6E8
:1034F000FF7101EA8020B04200D206464FF44070CE
:103500006FF0060B00EBC5093CE06FF00D00D7E74C
:103510001C2804D03846FFF7B1FD5846D0E7D4B98F
:103520003846FFF7F1FE80464FF4F85000EBC50037
:10353000FFF71AFAB8EB802F04D13846FFF79EFD4B
:103540005846BDE714490AFA07F04988084201D0F5
:103550000020B5E7B4B1B44200D226463246384620
:10356000019900F01BFA4FF4807000EBC504402174
:103570002046FFF75FFA2046FFF7F6F90028FAD158
:1035800030469DE73846FFF797FE04464846FFF76A
:10359000EBF91728D6D0BBE768000020054A0028C1
:1035A00003D011B1506191617047034850610348E5
:1035B0009061704780000020B93A0008B73A0008CF
:1035C00010B5074C22889305FDD518B111B1E06103
:1035D000216210BD0348E0610348206210BD000075
:1035E00080000020193C00081D3C00082DE9F74F21
:1035F00080461646B8F1080F03D34FF0FF30BDE800
:10360000FE8F012404EB88094FEAC900FFF7ACF9EB
:1036100000F00F00012801D0A01FF0E76EB14FF4B9
:10362000407000EBC9073846FFF79EF9172807D00E
:103630001C2805D06FF00600E1E76FF00D00DEE713
:10364000DFF828B14FF0010204FA08F4BBF80400D7
:103650004FF4007102EB8802044201EBC2050FD067
:103660002846FFF781F900F01F00C10616D528464D
:103670001021FFF7DFF9BBF80400A043ABF804000A
:103680004FF4F85000EBC900FFF76EF94FF6FF71E9
:1036900001EA8020864228D9064626E0000705D5A3
:1036A0004046FFF7EBFC6FF00C00A8E70020A6E710
:1036B0001C2806D010B94046FFF7E0FC6FF006006A
:1036C0009DE7BBF80200044203D0564501D9002013
:1036D00095E7564509D832464046019900F092F9DF
:1036E000BBF80400044223D12BE04046FFF70CFE58
:1036F00082463846FFF738F91728E2D0D8E738462F
:10370000FFF732F917280DD01C280BD020B128461E
:10371000FFF72AF9000702D54046FFF7AFFC6FF02C
:1037200006006CE7BBF80200044201D0002066E707
:103730002846FFF719F9C006E1D528461021FFF702
:1037400079F94FF4807000EBC90520212846FFF776
:1037500071F92846FFF708F90028FAD1BBF80400F0
:103760000443ABF80440304649E7000068000020FD
:103770002DE9F84305460E4617461C46082D03D38F
:103780004FF0FF30BDE8F88306F00F03042B18D08C
:1037900006DC012B0DD0022B13D0032B06D110E039
:1037A0000A2B0ED00B2B0CD00E2B0AD06FF004007E
:1037B000E8E7042269464FF47060FFF701F90098CA
:1037C00048B161076FF00500DCD49CB1012E05D033
:1037D000022E0FD106E06FF00200D3E714F0210FA4
:1037E000D0D007E0A10601D52106CBD5E10601D551
:1037F0002106C7D52846FFF741FC04F0F00131430C
:103800004FF0010909EB8506F000FFF713F9DFF827
:10381000A0806FB9B8F80070781C80B2A8F80000DA
:10382000A0F57F41F03903D14FF44040A8F80000E3
:103830004FF48060390A00EBC600FFF7FBF84FF445
:10384000A060F9B200EBC600FFF7F4F84FF4807007
:1038500000EBC60701213846FFF7ECF83846FFF7C2
:1038600083F80028FAD1B8F8020009FA05F920EA2D
:10387000090004F00101A9400143A8F80210B8F8BA
:10388000040020EA0900A8F804000A49002021F8F1
:1038900015000749891D48554FF4407000EBC604D8
:1038A0002046FFF761F80028FAD068B26AE7000006
:1038B00068000020608800202DE9F04387B00746AB
:1038C00001210846FEF7B6FA01211020FEF7CEFAD4
:1038D000DFF8C080072209214046FEF751F8072291
:1038E0000A214046FEF74CF84FF4C06005900226CE
:1038F0008DF818608DF8196000248DF81A400125A4
:103900008DF81B5005A94046FDF7FCFF0197ADF867
:103910000840ADF80A40ADF80C40ADF810400C205E
:10392000ADF80E00DFF8709001A94846FEF7A0FE42
:103930002F0205978DF818508DF819608DF81A40F0
:103940008DF81B5005A94046FDF7DCFF394640467F
:10395000FEF72DF8012240F225514846FEF76CFE95
:10396000012240F224414846FEF766FE0121484606
:10397000FEF736FE25208DF8000003208DF80100AB
:103980008DF802008DF803506846FEF7F7F807B08F
:10399000BDE8F08300000240001001402DE9F0472F
:1039A000064688461746002F2AD0012000EB8604E1
:1039B0004FF4245000EBC4000546FEF7D5FF8246C5
:1039C0004FF4205000EBC4008146FEF7CDFF0AEB18
:1039D000002084B22002032101EB860100EBC1002C
:1039E0003A464146FEF7ECFFE01984B2210A484608
:1039F000FFF720F8E1B22846BDE8F047FFF71AB814
:103A0000BDE8F0872DE9F047064688461746002FA7
:103A10002AD0012000EB86044FF4145000EBC400C0
:103A20000546FEF7A1FF82464FF4105000EBC4009C
:103A30008146FEF799FF0AEB002084B220020221A2
:103A400001EB860100EBC1003A464146FFF722F840
:103A5000E01984B2210A4846FEF7ECFFE1B228469D
:103A6000BDE8F047FEF7E6BFBDE8F0870078704795
:103A7000017070472DE9F041060A00F0F0014FF4A3
:103A8000A850FEF7D7FF00244FF001084FF400774D
:103A900008FA04F5354206D008EB840007EBC000B5
:103AA0001F21FEF7C7FF641CE4B2082CF0D3BDE869
:103AB000F08170477047704770470000012101484E
:103AC000FDF777BF000C024010B54FF4A850FEF789
:103AD0004BFF00F0F0044FF4B850FEF745FF04EB45
:103AE000002080B210BD10B54FF4B050FEF73CFF7F
:103AF00004464FF4C050FEF737FF04EB002080B2BD
:103B000010BD2DE9F04780460D46002400F087F8EF
:103B1000671E0126B8F1000F1CD0002218F8020021
:103B2000204444B2102C02DD3846BDE8F087521C18
:103B300052B2082AF2DB00244FF4F85906EB840055
:103B400018F8041009EBC000FEF774FF641C64B29F
:103B5000082CF3DBD5B100230022A85C184443B243
:103B6000102B01DD3846E0E7521C52B2082AF4DB84
:103B700000244FF4F05706EB8400295D07EBC000EA
:103B8000FEF758FF641C64B2082CF4DB0020CCE77D
:103B9000FF20FEF76BBE000001210148FDF707BFC3
:103BA000000C024010B5C1B2040A4FF4B050FEF749
:103BB00041FF2146BDE810404FF4C050FEF73ABF28
:103BC00010B50446062221464FF41060FEF762FF4E
:103BD000042204F10E019001FEF75CFF042204F1BF
:103BE0000A014FF4A060FEF755FF0422A11D4FF417
:103BF0007060FEF74FFF0748A17C0170E17C4170C7
:103C0000217D8170617DC1700249A07D491E0870CF
:103C100010BD000079000020002070477047F0B50B
:103C200085B04FF41064062269462046FEF7C8FEB0
:103C30000422950104A92846FEF7C2FE4FF4A066AF
:103C4000042203A93046FEF7BBFE4FF4706704223E
:103C500002A93846FEF7B4FE80210020FEF7EAFEF6
:103C60000020FEF781FE062269462046FEF712FF7D
:103C7000042204A92846FEF70DFF042203A93046BA
:103C8000FEF708FF042202A93846FEF703FF05B03D
:103C9000F0BDFEF7EBBD10B504464FF43850FEF70B
:103CA00063FEC0F38011217000F038000121002272
:103CB000202811D038280FD0627010280ED0182874
:103CC0000CD020280AD0A270082809D0182807D0C4
:103CD000202805D0E27010BD6170EEE7A170F3E717
:103CE000E17010BD10B500244FF43850FEF73CFED3
:103CF000C00700D00124204610BD10B500244FF4A9
:103D00003850FEF731FEC0F3C200062800D101246E
:103D1000204610BD10B504464FF43850FEF724FE7F
:103D2000C0F38001E170C0F34000A07010BD10B579
:103D30004FF438542046FEF717FE20F0800120464D
:103D4000FEF778FE2046FEF70FFE40F08001204689
:103D5000BDE81040FEF76EBE10B500210278012AC2
:103D600000D140214278012A06D0C278012A06D02B
:103D7000807801280CD00DE041F038010AE080780D
:103D8000012802D041F0080104E041F0180101E0EF
:103D900041F010014FF43850FEF74CFEBDE81040E2
:103DA000FFF7C5BF70B504464FF438552846FEF7F7
:103DB000DBFD41064FF0FF3601D4304670BD20F0E8
:103DC0003800012C10D040F038012846FEF732FEB2
:103DD000FFF7ADFF2846FEF7C7FD012C07D010F016
:103DE000380F09D0002070BD40F03001EDE710F031
:103DF000300F01D0002070BD304670BD02020202BB
:103E00000202020202020202020202020008DC11A5
:103E1000223300000000000000000000000008083D
:103E200008080100000000006E83F9A22915444E25
:103E3000D15727FCC0DD34F5999562DB4190433CB6
:103E4000AB6351FE643E000800000020B00000009B
:103E500050300008143F0008B0000020C08B000064
:103E60006030000800000000000000000000C841B1
:103E70000000000000000000FF0000000000000043
:103E8000007A030A000000000000000001020304A1
:103E900006070809000000000000010203040102F7
:103EA00003040607080900000000000000000000ED
:103EB0000000000000000000000000000000000002
:103EC00000000000000000000000000000C0000032
:103ED00000000000000000000000000000000000E2
:103EE00000000000000257353530300000000000AF
:103EF000B33A0008B53A0008B93A0008B73A0008E2
:103F00006D3A0008713A000800000000000000004F
:043F100000000000AD
:040000050800018965
:00000001FF
